{
  "_format": "hh-sol-artifact-1",
  "contractName": "MissingTooth",
  "sourceName": "contracts/MissingTooth.sol",
  "abi": [
    {
      "inputs": [
        {
          "internalType": "address",
          "name": "firstAddy",
          "type": "address"
        },
        {
          "internalType": "address",
          "name": "secondAddy",
          "type": "address"
        },
        {
          "internalType": "address",
          "name": "_vault",
          "type": "address"
        },
        {
          "internalType": "string",
          "name": "__baseTokenURI",
          "type": "string"
        },
        {
          "internalType": "string",
          "name": "_hiddenMetadataUri",
          "type": "string"
        }
      ],
      "stateMutability": "nonpayable",
      "type": "constructor"
    },
    {
      "anonymous": false,
      "inputs": [
        {
          "indexed": true,
          "internalType": "address",
          "name": "owner",
          "type": "address"
        },
        {
          "indexed": true,
          "internalType": "address",
          "name": "approved",
          "type": "address"
        },
        {
          "indexed": true,
          "internalType": "uint256",
          "name": "tokenId",
          "type": "uint256"
        }
      ],
      "name": "Approval",
      "type": "event"
    },
    {
      "anonymous": false,
      "inputs": [
        {
          "indexed": true,
          "internalType": "address",
          "name": "owner",
          "type": "address"
        },
        {
          "indexed": true,
          "internalType": "address",
          "name": "operator",
          "type": "address"
        },
        {
          "indexed": false,
          "internalType": "bool",
          "name": "approved",
          "type": "bool"
        }
      ],
      "name": "ApprovalForAll",
      "type": "event"
    },
    {
      "anonymous": false,
      "inputs": [
        {
          "indexed": true,
          "internalType": "address",
          "name": "previousOwner",
          "type": "address"
        },
        {
          "indexed": true,
          "internalType": "address",
          "name": "newOwner",
          "type": "address"
        }
      ],
      "name": "OwnershipTransferred",
      "type": "event"
    },
    {
      "anonymous": false,
      "inputs": [
        {
          "indexed": true,
          "internalType": "address",
          "name": "from",
          "type": "address"
        },
        {
          "indexed": true,
          "internalType": "address",
          "name": "to",
          "type": "address"
        },
        {
          "indexed": true,
          "internalType": "uint256",
          "name": "tokenId",
          "type": "uint256"
        }
      ],
      "name": "Transfer",
      "type": "event"
    },
    {
      "inputs": [],
      "name": "Author",
      "outputs": [
        {
          "internalType": "string",
          "name": "",
          "type": "string"
        }
      ],
      "stateMutability": "view",
      "type": "function"
    },
    {
      "inputs": [],
      "name": "MAX_TOKENS",
      "outputs": [
        {
          "internalType": "uint256",
          "name": "",
          "type": "uint256"
        }
      ],
      "stateMutability": "view",
      "type": "function"
    },
    {
      "inputs": [
        {
          "internalType": "address",
          "name": "to",
          "type": "address"
        },
        {
          "internalType": "uint256",
          "name": "amount",
          "type": "uint256"
        }
      ],
      "name": "adminMint",
      "outputs": [],
      "stateMutability": "nonpayable",
      "type": "function"
    },
    {
      "inputs": [
        {
          "internalType": "address",
          "name": "to",
          "type": "address"
        },
        {
          "internalType": "uint256",
          "name": "tokenId",
          "type": "uint256"
        }
      ],
      "name": "approve",
      "outputs": [],
      "stateMutability": "nonpayable",
      "type": "function"
    },
    {
      "inputs": [
        {
          "internalType": "address",
          "name": "owner",
          "type": "address"
        }
      ],
      "name": "balanceOf",
      "outputs": [
        {
          "internalType": "uint256",
          "name": "",
          "type": "uint256"
        }
      ],
      "stateMutability": "view",
      "type": "function"
    },
    {
      "inputs": [],
      "name": "baseExtension",
      "outputs": [
        {
          "internalType": "string",
          "name": "",
          "type": "string"
        }
      ],
      "stateMutability": "view",
      "type": "function"
    },
    {
      "inputs": [
        {
          "internalType": "uint256",
          "name": "tokenId",
          "type": "uint256"
        }
      ],
      "name": "burn",
      "outputs": [],
      "stateMutability": "nonpayable",
      "type": "function"
    },
    {
      "inputs": [
        {
          "internalType": "uint256",
          "name": "tokenId",
          "type": "uint256"
        }
      ],
      "name": "getApproved",
      "outputs": [
        {
          "internalType": "address",
          "name": "",
          "type": "address"
        }
      ],
      "stateMutability": "view",
      "type": "function"
    },
    {
      "inputs": [],
      "name": "hiddenMetadataUri",
      "outputs": [
        {
          "internalType": "string",
          "name": "",
          "type": "string"
        }
      ],
      "stateMutability": "view",
      "type": "function"
    },
    {
      "inputs": [
        {
          "internalType": "address",
          "name": "owner",
          "type": "address"
        },
        {
          "internalType": "address",
          "name": "operator",
          "type": "address"
        }
      ],
      "name": "isApprovedForAll",
      "outputs": [
        {
          "internalType": "bool",
          "name": "",
          "type": "bool"
        }
      ],
      "stateMutability": "view",
      "type": "function"
    },
    {
      "inputs": [],
      "name": "mTL",
      "outputs": [
        {
          "internalType": "uint256",
          "name": "",
          "type": "uint256"
        }
      ],
      "stateMutability": "view",
      "type": "function"
    },
    {
      "inputs": [],
      "name": "maxWhiteListMints",
      "outputs": [
        {
          "internalType": "uint256",
          "name": "",
          "type": "uint256"
        }
      ],
      "stateMutability": "view",
      "type": "function"
    },
    {
      "inputs": [],
      "name": "name",
      "outputs": [
        {
          "internalType": "string",
          "name": "",
          "type": "string"
        }
      ],
      "stateMutability": "view",
      "type": "function"
    },
    {
      "inputs": [],
      "name": "owner",
      "outputs": [
        {
          "internalType": "address",
          "name": "",
          "type": "address"
        }
      ],
      "stateMutability": "view",
      "type": "function"
    },
    {
      "inputs": [
        {
          "internalType": "uint256",
          "name": "tokenId",
          "type": "uint256"
        }
      ],
      "name": "ownerOf",
      "outputs": [
        {
          "internalType": "address",
          "name": "",
          "type": "address"
        }
      ],
      "stateMutability": "view",
      "type": "function"
    },
    {
      "inputs": [],
      "name": "publicMintIsOpen",
      "outputs": [
        {
          "internalType": "bool",
          "name": "",
          "type": "bool"
        }
      ],
      "stateMutability": "view",
      "type": "function"
    },
    {
      "inputs": [
        {
          "internalType": "uint256",
          "name": "a",
          "type": "uint256"
        }
      ],
      "name": "publicMissingToothMint",
      "outputs": [],
      "stateMutability": "payable",
      "type": "function"
    },
    {
      "inputs": [],
      "name": "renounceOwnership",
      "outputs": [],
      "stateMutability": "nonpayable",
      "type": "function"
    },
    {
      "inputs": [],
      "name": "revealed",
      "outputs": [
        {
          "internalType": "bool",
          "name": "",
          "type": "bool"
        }
      ],
      "stateMutability": "view",
      "type": "function"
    },
    {
      "inputs": [
        {
          "internalType": "address",
          "name": "from",
          "type": "address"
        },
        {
          "internalType": "address",
          "name": "to",
          "type": "address"
        },
        {
          "internalType": "uint256",
          "name": "tokenId",
          "type": "uint256"
        }
      ],
      "name": "safeTransferFrom",
      "outputs": [],
      "stateMutability": "nonpayable",
      "type": "function"
    },
    {
      "inputs": [
        {
          "internalType": "address",
          "name": "from",
          "type": "address"
        },
        {
          "internalType": "address",
          "name": "to",
          "type": "address"
        },
        {
          "internalType": "uint256",
          "name": "tokenId",
          "type": "uint256"
        },
        {
          "internalType": "bytes",
          "name": "_data",
          "type": "bytes"
        }
      ],
      "name": "safeTransferFrom",
      "outputs": [],
      "stateMutability": "nonpayable",
      "type": "function"
    },
    {
      "inputs": [
        {
          "internalType": "address",
          "name": "operator",
          "type": "address"
        },
        {
          "internalType": "bool",
          "name": "approved",
          "type": "bool"
        }
      ],
      "name": "setApprovalForAll",
      "outputs": [],
      "stateMutability": "nonpayable",
      "type": "function"
    },
    {
      "inputs": [
        {
          "internalType": "string",
          "name": "_baseExtension",
          "type": "string"
        }
      ],
      "name": "setBaseExtension",
      "outputs": [],
      "stateMutability": "nonpayable",
      "type": "function"
    },
    {
      "inputs": [
        {
          "internalType": "string",
          "name": "newBaseURI",
          "type": "string"
        }
      ],
      "name": "setBaseURI",
      "outputs": [],
      "stateMutability": "nonpayable",
      "type": "function"
    },
    {
      "inputs": [
        {
          "internalType": "uint256",
          "name": "amount",
          "type": "uint256"
        }
      ],
      "name": "setFreeMints",
      "outputs": [],
      "stateMutability": "nonpayable",
      "type": "function"
    },
    {
      "inputs": [
        {
          "internalType": "string",
          "name": "_hiddenMetadataUri",
          "type": "string"
        }
      ],
      "name": "setHiddenMetadataUri",
      "outputs": [],
      "stateMutability": "nonpayable",
      "type": "function"
    },
    {
      "inputs": [
        {
          "internalType": "uint256",
          "name": "newPrice",
          "type": "uint256"
        },
        {
          "internalType": "uint256",
          "name": "newWhitelistTokenPrice",
          "type": "uint256"
        },
        {
          "internalType": "uint256",
          "name": "setpublicMissingToothMintLimit",
          "type": "uint256"
        },
        {
          "internalType": "uint256",
          "name": "setwhitelistMissingToothMintLimit",
          "type": "uint256"
        },
        {
          "internalType": "bool",
          "name": "setPublicMintState",
          "type": "bool"
        },
        {
          "internalType": "bool",
          "name": "setWhitelistMintState",
          "type": "bool"
        }
      ],
      "name": "setParams",
      "outputs": [],
      "stateMutability": "nonpayable",
      "type": "function"
    },
    {
      "inputs": [
        {
          "internalType": "bool",
          "name": "_state",
          "type": "bool"
        }
      ],
      "name": "setRevealed",
      "outputs": [],
      "stateMutability": "nonpayable",
      "type": "function"
    },
    {
      "inputs": [
        {
          "internalType": "address",
          "name": "newSigner",
          "type": "address"
        },
        {
          "internalType": "address",
          "name": "newSigner2",
          "type": "address"
        }
      ],
      "name": "setSignerAddress",
      "outputs": [],
      "stateMutability": "nonpayable",
      "type": "function"
    },
    {
      "inputs": [
        {
          "internalType": "uint256",
          "name": "newPrice",
          "type": "uint256"
        }
      ],
      "name": "setTokenPrice",
      "outputs": [],
      "stateMutability": "nonpayable",
      "type": "function"
    },
    {
      "inputs": [
        {
          "internalType": "uint256",
          "name": "newMintLimit",
          "type": "uint256"
        }
      ],
      "name": "setTransactionMintLimit",
      "outputs": [],
      "stateMutability": "nonpayable",
      "type": "function"
    },
    {
      "inputs": [
        {
          "internalType": "address",
          "name": "newVault",
          "type": "address"
        }
      ],
      "name": "setVaultAddress",
      "outputs": [],
      "stateMutability": "nonpayable",
      "type": "function"
    },
    {
      "inputs": [
        {
          "internalType": "uint256",
          "name": "newWhitelistMintLimit",
          "type": "uint256"
        }
      ],
      "name": "setWhitelistTransactionMintLimit",
      "outputs": [],
      "stateMutability": "nonpayable",
      "type": "function"
    },
    {
      "inputs": [
        {
          "internalType": "bytes4",
          "name": "interfaceId",
          "type": "bytes4"
        }
      ],
      "name": "supportsInterface",
      "outputs": [
        {
          "internalType": "bool",
          "name": "",
          "type": "bool"
        }
      ],
      "stateMutability": "view",
      "type": "function"
    },
    {
      "inputs": [],
      "name": "symbol",
      "outputs": [
        {
          "internalType": "string",
          "name": "",
          "type": "string"
        }
      ],
      "stateMutability": "view",
      "type": "function"
    },
    {
      "inputs": [],
      "name": "togglePublicMint",
      "outputs": [],
      "stateMutability": "nonpayable",
      "type": "function"
    },
    {
      "inputs": [],
      "name": "toggleWhitelistMint",
      "outputs": [],
      "stateMutability": "nonpayable",
      "type": "function"
    },
    {
      "inputs": [],
      "name": "tokenPrice",
      "outputs": [
        {
          "internalType": "uint256",
          "name": "",
          "type": "uint256"
        }
      ],
      "stateMutability": "view",
      "type": "function"
    },
    {
      "inputs": [
        {
          "internalType": "uint256",
          "name": "_tokenId",
          "type": "uint256"
        }
      ],
      "name": "tokenURI",
      "outputs": [
        {
          "internalType": "string",
          "name": "",
          "type": "string"
        }
      ],
      "stateMutability": "view",
      "type": "function"
    },
    {
      "inputs": [],
      "name": "totalSupply",
      "outputs": [
        {
          "internalType": "uint256",
          "name": "",
          "type": "uint256"
        }
      ],
      "stateMutability": "view",
      "type": "function"
    },
    {
      "inputs": [
        {
          "internalType": "address",
          "name": "from",
          "type": "address"
        },
        {
          "internalType": "address",
          "name": "to",
          "type": "address"
        },
        {
          "internalType": "uint256",
          "name": "tokenId",
          "type": "uint256"
        }
      ],
      "name": "transferFrom",
      "outputs": [],
      "stateMutability": "nonpayable",
      "type": "function"
    },
    {
      "inputs": [
        {
          "internalType": "address",
          "name": "newOwner",
          "type": "address"
        }
      ],
      "name": "transferOwnership",
      "outputs": [],
      "stateMutability": "nonpayable",
      "type": "function"
    },
    {
      "inputs": [],
      "name": "whitelistMintIsOpen",
      "outputs": [
        {
          "internalType": "bool",
          "name": "",
          "type": "bool"
        }
      ],
      "stateMutability": "view",
      "type": "function"
    },
    {
      "inputs": [
        {
          "internalType": "bool",
          "name": "mH",
          "type": "bool"
        },
        {
          "internalType": "bytes32",
          "name": "mOne",
          "type": "bytes32"
        },
        {
          "internalType": "bytes",
          "name": "mTwo",
          "type": "bytes"
        },
        {
          "internalType": "bytes32",
          "name": "mThree",
          "type": "bytes32"
        },
        {
          "internalType": "bytes32",
          "name": "mFour",
          "type": "bytes32"
        },
        {
          "internalType": "bytes",
          "name": "mFive",
          "type": "bytes"
        },
        {
          "internalType": "uint256",
          "name": "amount",
          "type": "uint256"
        }
      ],
      "name": "whitelistMissingToothMint",
      "outputs": [],
      "stateMutability": "payable",
      "type": "function"
    },
    {
      "inputs": [],
      "name": "whitelistTokenPrice",
      "outputs": [
        {
          "internalType": "uint256",
          "name": "",
          "type": "uint256"
        }
      ],
      "stateMutability": "view",
      "type": "function"
    },
    {
      "inputs": [],
      "name": "whitelistmTL",
      "outputs": [
        {
          "internalType": "uint256",
          "name": "",
          "type": "uint256"
        }
      ],
      "stateMutability": "view",
      "type": "function"
    },
    {
      "inputs": [],
      "name": "withdraw",
      "outputs": [],
      "stateMutability": "nonpayable",
      "type": "function"
    },
    {
      "stateMutability": "payable",
      "type": "receive"
    }
  ],
  "bytecode": "0x60146009819055600a55669fdf42f6e48000600b819055600c9081556101f4600d55600e805462ffffff191661010017905560c060405260808190526b0a8cac6d0dee6d0d25ccae8d60a31b60a09081526200005f9160109190620005ca565b5060408051808201909152600580825264173539b7b760d91b60209092019182526200008e91601191620005ca565b50601380546001600160a01b03199081169091556014805482169055601580549091169055348015620000c057600080fd5b5060405162003f2038038062003f20833981016040819052620000e39162000767565b60405180604001604052806011815260200170135a5cdcda5b99c8151bdbdd1a08139195607a1b81525060405180604001604052806005815260200164135513919560da1b815250620001456200013f6200022460201b60201c565b62000228565b81516200015a906001906020850190620005ca565b50805162000170906002906020840190620005ca565b5050601580546001600160a01b03199081166001600160a01b03878116919091179092556013805482168984161790556014805490911691871691909117905550620001c9600862000278602090811b62001f1417901c565b620001e060086200027860201b62001f141760201c565b620001ed33600162000281565b81516200020290600f906020850190620005ca565b50805162000218906012906020840190620005ca565b505050505050620008f7565b3390565b600080546001600160a01b038381166001600160a01b0319831681178455604051919092169283917f8be0079c531659141344cd1fd0a4f28419497f9722a3daafe3b4186f6b6457e09190a35050565b80546001019055565b620002a3828260405180602001604052806000815250620002a760201b60201c565b5050565b620002b3838362000323565b620002c260008484846200046b565b6200031e5760405162461bcd60e51b8152602060048201526032602482015260008051602062003f0083398151915260448201527131b2b4bb32b91034b6b83632b6b2b73a32b960711b60648201526084015b60405180910390fd5b505050565b6001600160a01b0382166200037b5760405162461bcd60e51b815260206004820181905260248201527f4552433732313a206d696e7420746f20746865207a65726f2061646472657373604482015260640162000315565b6000818152600360205260409020546001600160a01b031615620003e25760405162461bcd60e51b815260206004820152601c60248201527f4552433732313a20746f6b656e20616c7265616479206d696e74656400000000604482015260640162000315565b6001600160a01b03821660009081526004602052604081208054600192906200040d9084906200080a565b909155505060008181526003602052604080822080546001600160a01b0319166001600160a01b03861690811790915590518392907fddf252ad1be2c89b69c2b068fc378daa952ba7f163c4a11628f55a4df523b3ef908290a45050565b60006200048c846001600160a01b0316620005c460201b62001f1d1760201c565b15620005b857604051630a85bd0160e11b81526001600160a01b0385169063150b7a0290620004c690339089908890889060040162000831565b6020604051808303816000875af192505050801562000504575060408051601f3d908101601f19168201909252620005019181019062000887565b60015b6200059d573d80801562000535576040519150601f19603f3d011682016040523d82523d6000602084013e6200053a565b606091505b508051620005955760405162461bcd60e51b8152602060048201526032602482015260008051602062003f0083398151915260448201527131b2b4bb32b91034b6b83632b6b2b73a32b960711b606482015260840162000315565b805181602001fd5b6001600160e01b031916630a85bd0160e11b149050620005bc565b5060015b949350505050565b3b151590565b828054620005d890620008ba565b90600052602060002090601f016020900481019282620005fc576000855562000647565b82601f106200061757805160ff191683800117855562000647565b8280016001018555821562000647579182015b82811115620006475782518255916020019190600101906200062a565b506200065592915062000659565b5090565b5b808211156200065557600081556001016200065a565b80516001600160a01b03811681146200068857600080fd5b919050565b634e487b7160e01b600052604160045260246000fd5b60005b83811015620006c0578181015183820152602001620006a6565b83811115620006d0576000848401525b50505050565b600082601f830112620006e857600080fd5b81516001600160401b03808211156200070557620007056200068d565b604051601f8301601f19908116603f011681019082821181831017156200073057620007306200068d565b816040528381528660208588010111156200074a57600080fd5b6200075d846020830160208901620006a3565b9695505050505050565b600080600080600060a086880312156200078057600080fd5b6200078b8662000670565b94506200079b6020870162000670565b9350620007ab6040870162000670565b60608701519093506001600160401b0380821115620007c957600080fd5b620007d789838a01620006d6565b93506080880151915080821115620007ee57600080fd5b50620007fd88828901620006d6565b9150509295509295909350565b600082198211156200082c57634e487b7160e01b600052601160045260246000fd5b500190565b600060018060a01b038087168352808616602084015250836040830152608060608301528251806080840152620008708160a0850160208701620006a3565b601f01601f19169190910160a00195945050505050565b6000602082840312156200089a57600080fd5b81516001600160e01b031981168114620008b357600080fd5b9392505050565b600181811c90821680620008cf57607f821691505b60208210811415620008f157634e487b7160e01b600052602260045260246000fd5b50919050565b6135f980620009076000396000f3fe60806040526004361061030c5760003560e01c80637ff9b5961161019a578063cf02027e116100e1578063e985e9c51161008a578063fa468ead11610064578063fa468ead14610849578063fe471ed51461085f578063ffc81d991461087f57600080fd5b8063e985e9c5146107ca578063f2fde38b14610813578063f47c84c51461083357600080fd5b8063e0a80853116100bb578063e0a808531461076a578063e58306f91461078a578063e7db8fb0146107aa57600080fd5b8063cf02027e1461071e578063d6966cd814610734578063da3ef23f1461074a57600080fd5b8063a15d60c511610143578063b88d4fde1161011d578063b88d4fde146106c9578063c6682862146106e9578063c87b56dd146106fe57600080fd5b8063a15d60c51461067a578063a22cb46514610694578063a45ba8e7146106b457600080fd5b806389d0997c1161017457806389d0997c146106315780638da5cb5b1461064757806395d89b411461066557600080fd5b80637ff9b596146105db5780638175e89c146105f157806385535cc51461061157600080fd5b806342842e0e1161025e5780636352211e116102075780636f63b60a116101e15780636f63b60a1461059157806370a08231146105a6578063715018a6146105c657600080fd5b80636352211e1461053e57806363784adb1461055e5780636a61e5fc1461057157600080fd5b8063518302271161023857806351830227146104eb57806355f804b31461050b5780635981c6971461052b57600080fd5b806342842e0e1461048b57806342966c68146104ab5780634fdd43cb146104cb57600080fd5b80630f1e6828116102c057806323b872dd1161029a57806323b872dd146104415780633ccfd60b146104615780634047638d1461047657600080fd5b80630f1e6828146103e957806318160ddd1461040957806320b2af521461042c57600080fd5b8063081812fc116102f1578063081812fc1461036f578063095ea7b3146103a75780630d738aeb146103c957600080fd5b806301ffc9a71461031857806306fdde031461034d57600080fd5b3661031357005b600080fd5b34801561032457600080fd5b50610338610333366004612f6c565b61089e565b60405190151581526020015b60405180910390f35b34801561035957600080fd5b50610362610983565b6040516103449190612fe1565b34801561037b57600080fd5b5061038f61038a366004612ff4565b610a15565b6040516001600160a01b039091168152602001610344565b3480156103b357600080fd5b506103c76103c2366004613029565b610ac0565b005b3480156103d557600080fd5b506103c76103e4366004612ff4565b610bf2565b3480156103f557600080fd5b506103c7610404366004612ff4565b610c51565b34801561041557600080fd5b5061041e610cb0565b604051908152602001610344565b34801561043857600080fd5b50610362610ccc565b34801561044d57600080fd5b506103c761045c366004613053565b610d5a565b34801561046d57600080fd5b506103c7610de1565b34801561048257600080fd5b506103c7610e77565b34801561049757600080fd5b506103c76104a6366004613053565b610ee5565b3480156104b757600080fd5b506103c76104c6366004612ff4565b610f00565b3480156104d757600080fd5b506103c76104e636600461311b565b610f63565b3480156104f757600080fd5b50600e546103389062010000900460ff1681565b34801561051757600080fd5b506103c761052636600461311b565b610fd4565b6103c7610539366004612ff4565b611041565b34801561054a57600080fd5b5061038f610559366004612ff4565b611196565b6103c761056c366004613194565b611221565b34801561057d57600080fd5b506103c761058c366004612ff4565b611596565b34801561059d57600080fd5b506103c76115f5565b3480156105b257600080fd5b5061041e6105c136600461322f565b61166c565b3480156105d257600080fd5b506103c7611706565b3480156105e757600080fd5b5061041e600b5481565b3480156105fd57600080fd5b506103c761060c36600461324a565b61176c565b34801561061d57600080fd5b506103c761062c36600461322f565b611801565b34801561063d57600080fd5b5061041e60095481565b34801561065357600080fd5b506000546001600160a01b031661038f565b34801561067157600080fd5b5061036261188a565b34801561068657600080fd5b50600e546103389060ff1681565b3480156106a057600080fd5b506103c76106af36600461327d565b611899565b3480156106c057600080fd5b506103626118a4565b3480156106d557600080fd5b506103c76106e43660046132a7565b6118b1565b3480156106f557600080fd5b5061036261193f565b34801561070a57600080fd5b50610362610719366004612ff4565b61194c565b34801561072a57600080fd5b5061041e600a5481565b34801561074057600080fd5b5061041e600d5481565b34801561075657600080fd5b506103c761076536600461311b565b611ada565b34801561077657600080fd5b506103c761078536600461330f565b611b47565b34801561079657600080fd5b506103c76107a5366004613029565b611bd9565b3480156107b657600080fd5b506103c76107c5366004612ff4565b611cd4565b3480156107d657600080fd5b506103386107e536600461324a565b6001600160a01b03918216600090815260066020908152604080832093909416825291909152205460ff1690565b34801561081f57600080fd5b506103c761082e36600461322f565b611d85565b34801561083f57600080fd5b5061041e6101f481565b34801561085557600080fd5b5061041e600c5481565b34801561086b57600080fd5b506103c761087a36600461332a565b611e64565b34801561088b57600080fd5b50600e5461033890610100900460ff1681565b60007fffffffff0000000000000000000000000000000000000000000000000000000082167f80ac58cd00000000000000000000000000000000000000000000000000000000148061093157507fffffffff0000000000000000000000000000000000000000000000000000000082167f5b5e139f00000000000000000000000000000000000000000000000000000000145b8061097d57507f01ffc9a7000000000000000000000000000000000000000000000000000000007fffffffff000000000000000000000000000000000000000000000000000000008316145b92915050565b60606001805461099290613382565b80601f01602080910402602001604051908101604052809291908181526020018280546109be90613382565b8015610a0b5780601f106109e057610100808354040283529160200191610a0b565b820191906000526020600020905b8154815290600101906020018083116109ee57829003601f168201915b5050505050905090565b6000818152600360205260408120546001600160a01b0316610aa45760405162461bcd60e51b815260206004820152602c60248201527f4552433732313a20617070726f76656420717565727920666f72206e6f6e657860448201527f697374656e7420746f6b656e000000000000000000000000000000000000000060648201526084015b60405180910390fd5b506000908152600560205260409020546001600160a01b031690565b6000610acb82611196565b9050806001600160a01b0316836001600160a01b03161415610b555760405162461bcd60e51b815260206004820152602160248201527f4552433732313a20617070726f76616c20746f2063757272656e74206f776e6560448201527f72000000000000000000000000000000000000000000000000000000000000006064820152608401610a9b565b336001600160a01b0382161480610b715750610b7181336107e5565b610be35760405162461bcd60e51b815260206004820152603860248201527f4552433732313a20617070726f76652063616c6c6572206973206e6f74206f7760448201527f6e6572206e6f7220617070726f76656420666f7220616c6c00000000000000006064820152608401610a9b565b610bed8383611f23565b505050565b6000546001600160a01b03163314610c4c5760405162461bcd60e51b815260206004820181905260248201527f4f776e61626c653a2063616c6c6572206973206e6f7420746865206f776e65726044820152606401610a9b565b600a55565b6000546001600160a01b03163314610cab5760405162461bcd60e51b815260206004820181905260248201527f4f776e61626c653a2063616c6c6572206973206e6f7420746865206f776e65726044820152606401610a9b565b600955565b60006001610cbd60085490565b610cc791906133d3565b905090565b60108054610cd990613382565b80601f0160208091040260200160405190810160405280929190818152602001828054610d0590613382565b8015610d525780601f10610d2757610100808354040283529160200191610d52565b820191906000526020600020905b815481529060010190602001808311610d3557829003601f168201915b505050505081565b610d643382611f9e565b610dd65760405162461bcd60e51b815260206004820152603160248201527f4552433732313a207472616e736665722063616c6c6572206973206e6f74206f60448201527f776e6572206e6f7220617070726f7665640000000000000000000000000000006064820152608401610a9b565b610bed8383836120a6565b6000546001600160a01b03163314610e3b5760405162461bcd60e51b815260206004820181905260248201527f4f776e61626c653a2063616c6c6572206973206e6f7420746865206f776e65726044820152606401610a9b565b6015546040516001600160a01b03909116904780156108fc02916000818181858888f19350505050158015610e74573d6000803e3d6000fd5b50565b6000546001600160a01b03163314610ed15760405162461bcd60e51b815260206004820181905260248201527f4f776e61626c653a2063616c6c6572206973206e6f7420746865206f776e65726044820152606401610a9b565b600e805460ff19811660ff90911615179055565b610bed838383604051806020016040528060008152506118b1565b6000546001600160a01b03163314610f5a5760405162461bcd60e51b815260206004820181905260248201527f4f776e61626c653a2063616c6c6572206973206e6f7420746865206f776e65726044820152606401610a9b565b610e7481612280565b6000546001600160a01b03163314610fbd5760405162461bcd60e51b815260206004820181905260248201527f4f776e61626c653a2063616c6c6572206973206e6f7420746865206f776e65726044820152606401610a9b565b8051610fd0906012906020840190612e6f565b5050565b6000546001600160a01b0316331461102e5760405162461bcd60e51b815260206004820181905260248201527f4f776e61626c653a2063616c6c6572206973206e6f7420746865206f776e65726044820152606401610a9b565b8051610fd090600f906020840190612e6f565b600061104c60085490565b90506009548211156110a05760405162461bcd60e51b815260206004820152601560248201527f4d696e7420616d6f756e7420746f6f206c6172676500000000000000000000006044820152606401610a9b565b6101f46110ad83836133ea565b11156110fb5760405162461bcd60e51b815260206004820152601b60248201527f4e6f7420656e6f75676820746f6b656e732072656d61696e696e6700000000006044820152606401610a9b565b3482600b5461110a9190613402565b11156111585760405162461bcd60e51b815260206004820152601560248201527f4e6f7420656e6f7567682065746865722073656e7400000000000000000000006044820152606401610a9b565b60005b82811015610bed57611171600880546001019055565b6111843361117f83856133ea565b612289565b8061118e81613421565b91505061115b565b6000818152600360205260408120546001600160a01b03168061097d5760405162461bcd60e51b815260206004820152602960248201527f4552433732313a206f776e657220717565727920666f72206e6f6e657869737460448201527f656e7420746f6b656e00000000000000000000000000000000000000000000006064820152608401610a9b565b8686868585600e60019054906101000a900460ff166112825760405162461bcd60e51b815260206004820152601460248201527f5072652d53616c65206973206e6f74204f70656e0000000000000000000000006044820152606401610a9b565b6112a485866112915783611293565b855b8761129e57836122a3565b856122a3565b6112f05760405162461bcd60e51b815260206004820152601760248201527f446972656374206d696e74206e6f7720616c6c6f7765640000000000000000006044820152606401610a9b565b33896000604051602001611373907f496620796f752077616e7420746f2068656c702067726f77207468697320707281527f6f6a65637420616e6420796f752063616e206765742061726f756e642074686560208201527f206761746520676f20666f722069742e207e546563686f7368690000000000006040820152605a0190565b604051602081830303815290604052805190602001206040516020016113bc907f3c285e5f5e293e00000000000000000000000000000000000000000000000000815260070190565b60408051601f1981840301815291905280516020909101201415905060006113e360085490565b90506101f46113f28b836133ea565b11156114405760405162461bcd60e51b815260206004820152601b60248201527f4e6f7420656e6f75676820746f6b656e732072656d61696e696e6700000000006044820152606401610a9b565b600d5461144d8b836133ea565b111561149b5760405162461bcd60e51b815260206004820152601f60248201527f4e6f7420656e6f7567682066726565206d696e74732072656d61696e696e67006044820152606401610a9b565b348a600c546114aa9190613402565b11156114f85760405162461bcd60e51b815260206004820152601560248201527f4e6f7420656e6f7567682065746865722073656e7400000000000000000000006044820152606401610a9b565b600a548a111561154a5760405162461bcd60e51b815260206004820152601560248201527f4d696e7420616d6f756e7420746f6f206c6172676500000000000000000000006044820152606401610a9b565b60005b8a81101561158357611563600880546001019055565b6115713361117f83856133ea565b8061157b81613421565b91505061154d565b5050505050505050505050505050505050565b6000546001600160a01b031633146115f05760405162461bcd60e51b815260206004820181905260248201527f4f776e61626c653a2063616c6c6572206973206e6f7420746865206f776e65726044820152606401610a9b565b600b55565b6000546001600160a01b0316331461164f5760405162461bcd60e51b815260206004820181905260248201527f4f776e61626c653a2063616c6c6572206973206e6f7420746865206f776e65726044820152606401610a9b565b600e805461ff001981166101009182900460ff1615909102179055565b60006001600160a01b0382166116ea5760405162461bcd60e51b815260206004820152602a60248201527f4552433732313a2062616c616e636520717565727920666f7220746865207a6560448201527f726f2061646472657373000000000000000000000000000000000000000000006064820152608401610a9b565b506001600160a01b031660009081526004602052604090205490565b6000546001600160a01b031633146117605760405162461bcd60e51b815260206004820181905260248201527f4f776e61626c653a2063616c6c6572206973206e6f7420746865206f776e65726044820152606401610a9b565b61176a6000612361565b565b6000546001600160a01b031633146117c65760405162461bcd60e51b815260206004820181905260248201527f4f776e61626c653a2063616c6c6572206973206e6f7420746865206f776e65726044820152606401610a9b565b601380546001600160a01b0393841673ffffffffffffffffffffffffffffffffffffffff199182161790915560148054929093169116179055565b6000546001600160a01b0316331461185b5760405162461bcd60e51b815260206004820181905260248201527f4f776e61626c653a2063616c6c6572206973206e6f7420746865206f776e65726044820152606401610a9b565b6015805473ffffffffffffffffffffffffffffffffffffffff19166001600160a01b0392909216919091179055565b60606002805461099290613382565b610fd03383836123be565b60128054610cd990613382565b6118bb3383611f9e565b61192d5760405162461bcd60e51b815260206004820152603160248201527f4552433732313a207472616e736665722063616c6c6572206973206e6f74206f60448201527f776e6572206e6f7220617070726f7665640000000000000000000000000000006064820152608401610a9b565b6119398484848461248d565b50505050565b60118054610cd990613382565b6000818152600360205260409020546060906001600160a01b03166119d95760405162461bcd60e51b815260206004820152602f60248201527f4552433732314d657461646174613a2055524920717565727920666f72206e6f60448201527f6e6578697374656e7420746f6b656e00000000000000000000000000000000006064820152608401610a9b565b600e5462010000900460ff16611a7b57601280546119f690613382565b80601f0160208091040260200160405190810160405280929190818152602001828054611a2290613382565b8015611a6f5780601f10611a4457610100808354040283529160200191611a6f565b820191906000526020600020905b815481529060010190602001808311611a5257829003601f168201915b50505050509050919050565b6000611a85612516565b90506000815111611aa55760405180602001604052806000815250611ad3565b80611aaf84612525565b6011604051602001611ac39392919061343c565b6040516020818303038152906040525b9392505050565b6000546001600160a01b03163314611b345760405162461bcd60e51b815260206004820181905260248201527f4f776e61626c653a2063616c6c6572206973206e6f7420746865206f776e65726044820152606401610a9b565b8051610fd0906011906020840190612e6f565b6000546001600160a01b03163314611ba15760405162461bcd60e51b815260206004820181905260248201527f4f776e61626c653a2063616c6c6572206973206e6f7420746865206f776e65726044820152606401610a9b565b600e805491151562010000027fffffffffffffffffffffffffffffffffffffffffffffffffffffffffff00ffff909216919091179055565b6000546001600160a01b03163314611c335760405162461bcd60e51b815260206004820181905260248201527f4f776e61626c653a2063616c6c6572206973206e6f7420746865206f776e65726044820152606401610a9b565b6000611c3e60085490565b90506101f4611c4d83836133ea565b1115611c9b5760405162461bcd60e51b815260206004820152601b60248201527f4e6f7420656e6f75676820746f6b656e732072656d61696e696e6700000000006044820152606401610a9b565b60005b8281101561193957611cb4600880546001019055565b611cc28461117f83856133ea565b80611ccc81613421565b915050611c9e565b6000546001600160a01b03163314611d2e5760405162461bcd60e51b815260206004820181905260248201527f4f776e61626c653a2063616c6c6572206973206e6f7420746865206f776e65726044820152606401610a9b565b6101f4811115611d805760405162461bcd60e51b815260206004820152601a60248201527f46726565206d696e7420616d6f756e7420746f6f206c617267650000000000006044820152606401610a9b565b600d55565b6000546001600160a01b03163314611ddf5760405162461bcd60e51b815260206004820181905260248201527f4f776e61626c653a2063616c6c6572206973206e6f7420746865206f776e65726044820152606401610a9b565b6001600160a01b038116611e5b5760405162461bcd60e51b815260206004820152602660248201527f4f776e61626c653a206e6577206f776e657220697320746865207a65726f206160448201527f64647265737300000000000000000000000000000000000000000000000000006064820152608401610a9b565b610e7481612361565b6000546001600160a01b03163314611ebe5760405162461bcd60e51b815260206004820181905260248201527f4f776e61626c653a2063616c6c6572206973206e6f7420746865206f776e65726044820152606401610a9b565b600c94909455600b94909455600991909155600a55600e80547fffffffffffffffffffffffffffffffffffffffffffffffffffffffffffff00001692151561ff0019169290921761010091151591909102179055565b80546001019055565b3b151590565b6000818152600560205260409020805473ffffffffffffffffffffffffffffffffffffffff19166001600160a01b0384169081179091558190611f6582611196565b6001600160a01b03167f8c5be1e5ebec7d5bd14f71427d1e84f3dd0314c0f7b2291e5b200ac8c7c3b92560405160405180910390a45050565b6000818152600360205260408120546001600160a01b03166120285760405162461bcd60e51b815260206004820152602c60248201527f4552433732313a206f70657261746f7220717565727920666f72206e6f6e657860448201527f697374656e7420746f6b656e00000000000000000000000000000000000000006064820152608401610a9b565b600061203383611196565b9050806001600160a01b0316846001600160a01b0316148061206e5750836001600160a01b031661206384610a15565b6001600160a01b0316145b8061209e57506001600160a01b0380821660009081526006602090815260408083209388168352929052205460ff165b949350505050565b826001600160a01b03166120b982611196565b6001600160a01b0316146121355760405162461bcd60e51b815260206004820152602960248201527f4552433732313a207472616e73666572206f6620746f6b656e2074686174206960448201527f73206e6f74206f776e00000000000000000000000000000000000000000000006064820152608401610a9b565b6001600160a01b0382166121b05760405162461bcd60e51b8152602060048201526024808201527f4552433732313a207472616e7366657220746f20746865207a65726f2061646460448201527f72657373000000000000000000000000000000000000000000000000000000006064820152608401610a9b565b6121bb600082611f23565b6001600160a01b03831660009081526004602052604081208054600192906121e49084906133d3565b90915550506001600160a01b03821660009081526004602052604081208054600192906122129084906133ea565b9091555050600081815260036020526040808220805473ffffffffffffffffffffffffffffffffffffffff19166001600160a01b0386811691821790925591518493918716917fddf252ad1be2c89b69c2b068fc378daa952ba7f163c4a11628f55a4df523b3ef91a4505050565b610e7481612657565b610fd0828260405180602001604052806000815250612697565b60008061230783612301866040517f19457468657265756d205369676e6564204d6573736167653a0a3332000000006020820152603c8101829052600090605c01604051602081830303815290604052805190602001209050919050565b90612720565b9050600085801561232557506013546001600160a01b038381169116145b905060008615801561234457506014546001600160a01b038481169116145b90506000876123535781612355565b825b98975050505050505050565b600080546001600160a01b0383811673ffffffffffffffffffffffffffffffffffffffff19831681178455604051919092169283917f8be0079c531659141344cd1fd0a4f28419497f9722a3daafe3b4186f6b6457e09190a35050565b816001600160a01b0316836001600160a01b031614156124205760405162461bcd60e51b815260206004820152601960248201527f4552433732313a20617070726f766520746f2063616c6c6572000000000000006044820152606401610a9b565b6001600160a01b03838116600081815260066020908152604080832094871680845294825291829020805460ff191686151590811790915591519182527f17307eab39ab6107e8899845ad3d59bd9653f200f220920489ca2b5937696c31910160405180910390a3505050565b6124988484846120a6565b6124a484848484612744565b6119395760405162461bcd60e51b815260206004820152603260248201527f4552433732313a207472616e7366657220746f206e6f6e20455243373231526560448201527f63656976657220696d706c656d656e74657200000000000000000000000000006064820152608401610a9b565b6060600f805461099290613382565b60608161256557505060408051808201909152600181527f3000000000000000000000000000000000000000000000000000000000000000602082015290565b8160005b811561258f578061257981613421565b91506125889050600a83613516565b9150612569565b60008167ffffffffffffffff8111156125aa576125aa61308f565b6040519080825280601f01601f1916602001820160405280156125d4576020820181803683370190505b5090505b841561209e576125e96001836133d3565b91506125f6600a8661352a565b6126019060306133ea565b60f81b8183815181106126165761261661353e565b60200101907effffffffffffffffffffffffffffffffffffffffffffffffffffffffffffff1916908160001a905350612650600a86613516565b94506125d8565b612660816128e2565b6000818152600760205260409020805461267990613382565b159050610e74576000818152600760205260408120610e7491612ef3565b6126a1838361298a565b6126ae6000848484612744565b610bed5760405162461bcd60e51b815260206004820152603260248201527f4552433732313a207472616e7366657220746f206e6f6e20455243373231526560448201527f63656976657220696d706c656d656e74657200000000000000000000000000006064820152608401610a9b565b600080600061272f8585612ad9565b9150915061273c81612b49565b509392505050565b60006001600160a01b0384163b156128d7576040517f150b7a020000000000000000000000000000000000000000000000000000000081526001600160a01b0385169063150b7a02906127a1903390899088908890600401613554565b6020604051808303816000875af19250505080156127dc575060408051601f3d908101601f191682019092526127d991810190613590565b60015b61288c573d80801561280a576040519150601f19603f3d011682016040523d82523d6000602084013e61280f565b606091505b5080516128845760405162461bcd60e51b815260206004820152603260248201527f4552433732313a207472616e7366657220746f206e6f6e20455243373231526560448201527f63656976657220696d706c656d656e74657200000000000000000000000000006064820152608401610a9b565b805181602001fd5b7fffffffff00000000000000000000000000000000000000000000000000000000167f150b7a020000000000000000000000000000000000000000000000000000000014905061209e565b506001949350505050565b60006128ed82611196565b90506128fa600083611f23565b6001600160a01b03811660009081526004602052604081208054600192906129239084906133d3565b9091555050600082815260036020526040808220805473ffffffffffffffffffffffffffffffffffffffff19169055518391906001600160a01b038416907fddf252ad1be2c89b69c2b068fc378daa952ba7f163c4a11628f55a4df523b3ef908390a45050565b6001600160a01b0382166129e05760405162461bcd60e51b815260206004820181905260248201527f4552433732313a206d696e7420746f20746865207a65726f20616464726573736044820152606401610a9b565b6000818152600360205260409020546001600160a01b031615612a455760405162461bcd60e51b815260206004820152601c60248201527f4552433732313a20746f6b656e20616c7265616479206d696e746564000000006044820152606401610a9b565b6001600160a01b0382166000908152600460205260408120805460019290612a6e9084906133ea565b9091555050600081815260036020526040808220805473ffffffffffffffffffffffffffffffffffffffff19166001600160a01b03861690811790915590518392907fddf252ad1be2c89b69c2b068fc378daa952ba7f163c4a11628f55a4df523b3ef908290a45050565b600080825160411415612b105760208301516040840151606085015160001a612b0487828585612d3a565b94509450505050612b42565b825160401415612b3a5760208301516040840151612b2f868383612e27565b935093505050612b42565b506000905060025b9250929050565b6000816004811115612b5d57612b5d6135ad565b1415612b665750565b6001816004811115612b7a57612b7a6135ad565b1415612bc85760405162461bcd60e51b815260206004820152601860248201527f45434453413a20696e76616c6964207369676e617475726500000000000000006044820152606401610a9b565b6002816004811115612bdc57612bdc6135ad565b1415612c2a5760405162461bcd60e51b815260206004820152601f60248201527f45434453413a20696e76616c6964207369676e6174757265206c656e677468006044820152606401610a9b565b6003816004811115612c3e57612c3e6135ad565b1415612cb25760405162461bcd60e51b815260206004820152602260248201527f45434453413a20696e76616c6964207369676e6174757265202773272076616c60448201527f75650000000000000000000000000000000000000000000000000000000000006064820152608401610a9b565b6004816004811115612cc657612cc66135ad565b1415610e745760405162461bcd60e51b815260206004820152602260248201527f45434453413a20696e76616c6964207369676e6174757265202776272076616c60448201527f75650000000000000000000000000000000000000000000000000000000000006064820152608401610a9b565b6000807f7fffffffffffffffffffffffffffffff5d576e7357a4501ddfe92f46681b20a0831115612d715750600090506003612e1e565b8460ff16601b14158015612d8957508460ff16601c14155b15612d9a5750600090506004612e1e565b6040805160008082526020820180845289905260ff881692820192909252606081018690526080810185905260019060a0016020604051602081039080840390855afa158015612dee573d6000803e3d6000fd5b5050604051601f1901519150506001600160a01b038116612e1757600060019250925050612e1e565b9150600090505b94509492505050565b6000807f7fffffffffffffffffffffffffffffffffffffffffffffffffffffffffffffff831660ff84901c601b01612e6187828885612d3a565b935093505050935093915050565b828054612e7b90613382565b90600052602060002090601f016020900481019282612e9d5760008555612ee3565b82601f10612eb657805160ff1916838001178555612ee3565b82800160010185558215612ee3579182015b82811115612ee3578251825591602001919060010190612ec8565b50612eef929150612f29565b5090565b508054612eff90613382565b6000825580601f10612f0f575050565b601f016020900490600052602060002090810190610e7491905b5b80821115612eef5760008155600101612f2a565b7fffffffff0000000000000000000000000000000000000000000000000000000081168114610e7457600080fd5b600060208284031215612f7e57600080fd5b8135611ad381612f3e565b60005b83811015612fa4578181015183820152602001612f8c565b838111156119395750506000910152565b60008151808452612fcd816020860160208601612f89565b601f01601f19169290920160200192915050565b602081526000611ad36020830184612fb5565b60006020828403121561300657600080fd5b5035919050565b80356001600160a01b038116811461302457600080fd5b919050565b6000806040838503121561303c57600080fd5b6130458361300d565b946020939093013593505050565b60008060006060848603121561306857600080fd5b6130718461300d565b925061307f6020850161300d565b9150604084013590509250925092565b634e487b7160e01b600052604160045260246000fd5b600067ffffffffffffffff808411156130c0576130c061308f565b604051601f8501601f19908116603f011681019082821181831017156130e8576130e861308f565b8160405280935085815286868601111561310157600080fd5b858560208301376000602087830101525050509392505050565b60006020828403121561312d57600080fd5b813567ffffffffffffffff81111561314457600080fd5b8201601f8101841361315557600080fd5b61209e848235602084016130a5565b8035801515811461302457600080fd5b600082601f83011261318557600080fd5b611ad3838335602085016130a5565b600080600080600080600060e0888a0312156131af57600080fd5b6131b888613164565b965060208801359550604088013567ffffffffffffffff808211156131dc57600080fd5b6131e88b838c01613174565b965060608a0135955060808a0135945060a08a013591508082111561320c57600080fd5b506132198a828b01613174565b92505060c0880135905092959891949750929550565b60006020828403121561324157600080fd5b611ad38261300d565b6000806040838503121561325d57600080fd5b6132668361300d565b91506132746020840161300d565b90509250929050565b6000806040838503121561329057600080fd5b6132998361300d565b915061327460208401613164565b600080600080608085870312156132bd57600080fd5b6132c68561300d565b93506132d46020860161300d565b925060408501359150606085013567ffffffffffffffff8111156132f757600080fd5b61330387828801613174565b91505092959194509250565b60006020828403121561332157600080fd5b611ad382613164565b60008060008060008060c0878903121561334357600080fd5b8635955060208701359450604087013593506060870135925061336860808801613164565b915061337660a08801613164565b90509295509295509295565b600181811c9082168061339657607f821691505b602082108114156133b757634e487b7160e01b600052602260045260246000fd5b50919050565b634e487b7160e01b600052601160045260246000fd5b6000828210156133e5576133e56133bd565b500390565b600082198211156133fd576133fd6133bd565b500190565b600081600019048311821515161561341c5761341c6133bd565b500290565b6000600019821415613435576134356133bd565b5060010190565b60008451602061344f8285838a01612f89565b8551918401916134628184848a01612f89565b8554920191600090600181811c908083168061347f57607f831692505b85831081141561349d57634e487b7160e01b85526022600452602485fd5b8080156134b157600181146134c2576134ef565b60ff198516885283880195506134ef565b60008b81526020902060005b858110156134e75781548a8201529084019088016134ce565b505083880195505b50939b9a5050505050505050505050565b634e487b7160e01b600052601260045260246000fd5b60008261352557613525613500565b500490565b60008261353957613539613500565b500690565b634e487b7160e01b600052603260045260246000fd5b60006001600160a01b038087168352808616602084015250836040830152608060608301526135866080830184612fb5565b9695505050505050565b6000602082840312156135a257600080fd5b8151611ad381612f3e565b634e487b7160e01b600052602160045260246000fdfea2646970667358221220d7a542561719344dfd450ec407789a56f54386d84bcd00b9c26f2c57e049aec764736f6c634300080b00334552433732313a207472616e7366657220746f206e6f6e204552433732315265",
  "linkReferences": {},
  "deployedLinkReferences": {}
}