{
  "_format": "hh-sol-artifact-1",
  "contractName": "ToothyTooths",
  "sourceName": "contracts/ToothyTooths.sol",
  "abi": [
    {
      "inputs": [
        {
          "internalType": "address",
          "name": "firstAddy",
          "type": "address"
        },
        {
          "internalType": "address",
          "name": "secondAddy",
          "type": "address"
        },
        {
          "internalType": "address",
          "name": "_vault",
          "type": "address"
        },
        {
          "internalType": "string",
          "name": "__baseTokenURI",
          "type": "string"
        },
        {
          "internalType": "string",
          "name": "_hiddenMetadataUri",
          "type": "string"
        }
      ],
      "stateMutability": "nonpayable",
      "type": "constructor"
    },
    {
      "anonymous": false,
      "inputs": [
        {
          "indexed": true,
          "internalType": "address",
          "name": "owner",
          "type": "address"
        },
        {
          "indexed": true,
          "internalType": "address",
          "name": "approved",
          "type": "address"
        },
        {
          "indexed": true,
          "internalType": "uint256",
          "name": "tokenId",
          "type": "uint256"
        }
      ],
      "name": "Approval",
      "type": "event"
    },
    {
      "anonymous": false,
      "inputs": [
        {
          "indexed": true,
          "internalType": "address",
          "name": "owner",
          "type": "address"
        },
        {
          "indexed": true,
          "internalType": "address",
          "name": "operator",
          "type": "address"
        },
        {
          "indexed": false,
          "internalType": "bool",
          "name": "approved",
          "type": "bool"
        }
      ],
      "name": "ApprovalForAll",
      "type": "event"
    },
    {
      "anonymous": false,
      "inputs": [
        {
          "indexed": true,
          "internalType": "address",
          "name": "previousOwner",
          "type": "address"
        },
        {
          "indexed": true,
          "internalType": "address",
          "name": "newOwner",
          "type": "address"
        }
      ],
      "name": "OwnershipTransferred",
      "type": "event"
    },
    {
      "anonymous": false,
      "inputs": [
        {
          "indexed": true,
          "internalType": "address",
          "name": "from",
          "type": "address"
        },
        {
          "indexed": true,
          "internalType": "address",
          "name": "to",
          "type": "address"
        },
        {
          "indexed": true,
          "internalType": "uint256",
          "name": "tokenId",
          "type": "uint256"
        }
      ],
      "name": "Transfer",
      "type": "event"
    },
    {
      "inputs": [],
      "name": "MAX_TOKENS",
      "outputs": [
        {
          "internalType": "uint256",
          "name": "",
          "type": "uint256"
        }
      ],
      "stateMutability": "view",
      "type": "function"
    },
    {
      "inputs": [
        {
          "internalType": "address",
          "name": "to",
          "type": "address"
        },
        {
          "internalType": "uint256",
          "name": "amount",
          "type": "uint256"
        }
      ],
      "name": "adminMint",
      "outputs": [],
      "stateMutability": "nonpayable",
      "type": "function"
    },
    {
      "inputs": [
        {
          "internalType": "address",
          "name": "to",
          "type": "address"
        },
        {
          "internalType": "uint256",
          "name": "tokenId",
          "type": "uint256"
        }
      ],
      "name": "approve",
      "outputs": [],
      "stateMutability": "nonpayable",
      "type": "function"
    },
    {
      "inputs": [
        {
          "internalType": "address",
          "name": "owner",
          "type": "address"
        }
      ],
      "name": "balanceOf",
      "outputs": [
        {
          "internalType": "uint256",
          "name": "",
          "type": "uint256"
        }
      ],
      "stateMutability": "view",
      "type": "function"
    },
    {
      "inputs": [],
      "name": "baseExtension",
      "outputs": [
        {
          "internalType": "string",
          "name": "",
          "type": "string"
        }
      ],
      "stateMutability": "view",
      "type": "function"
    },
    {
      "inputs": [
        {
          "internalType": "uint256",
          "name": "tokenId",
          "type": "uint256"
        }
      ],
      "name": "burn",
      "outputs": [],
      "stateMutability": "nonpayable",
      "type": "function"
    },
    {
      "inputs": [
        {
          "internalType": "uint256",
          "name": "tokenId",
          "type": "uint256"
        }
      ],
      "name": "getApproved",
      "outputs": [
        {
          "internalType": "address",
          "name": "",
          "type": "address"
        }
      ],
      "stateMutability": "view",
      "type": "function"
    },
    {
      "inputs": [],
      "name": "hiddenMetadataUri",
      "outputs": [
        {
          "internalType": "string",
          "name": "",
          "type": "string"
        }
      ],
      "stateMutability": "view",
      "type": "function"
    },
    {
      "inputs": [
        {
          "internalType": "address",
          "name": "owner",
          "type": "address"
        },
        {
          "internalType": "address",
          "name": "operator",
          "type": "address"
        }
      ],
      "name": "isApprovedForAll",
      "outputs": [
        {
          "internalType": "bool",
          "name": "",
          "type": "bool"
        }
      ],
      "stateMutability": "view",
      "type": "function"
    },
    {
      "inputs": [],
      "name": "mTL",
      "outputs": [
        {
          "internalType": "uint256",
          "name": "",
          "type": "uint256"
        }
      ],
      "stateMutability": "view",
      "type": "function"
    },
    {
      "inputs": [],
      "name": "maxWhiteListMints",
      "outputs": [
        {
          "internalType": "uint256",
          "name": "",
          "type": "uint256"
        }
      ],
      "stateMutability": "view",
      "type": "function"
    },
    {
      "inputs": [],
      "name": "name",
      "outputs": [
        {
          "internalType": "string",
          "name": "",
          "type": "string"
        }
      ],
      "stateMutability": "view",
      "type": "function"
    },
    {
      "inputs": [],
      "name": "owner",
      "outputs": [
        {
          "internalType": "address",
          "name": "",
          "type": "address"
        }
      ],
      "stateMutability": "view",
      "type": "function"
    },
    {
      "inputs": [
        {
          "internalType": "uint256",
          "name": "tokenId",
          "type": "uint256"
        }
      ],
      "name": "ownerOf",
      "outputs": [
        {
          "internalType": "address",
          "name": "",
          "type": "address"
        }
      ],
      "stateMutability": "view",
      "type": "function"
    },
    {
      "inputs": [],
      "name": "publicMintIsOpen",
      "outputs": [
        {
          "internalType": "bool",
          "name": "",
          "type": "bool"
        }
      ],
      "stateMutability": "view",
      "type": "function"
    },
    {
      "inputs": [
        {
          "internalType": "bool",
          "name": "mH",
          "type": "bool"
        },
        {
          "internalType": "bytes32",
          "name": "mOne",
          "type": "bytes32"
        },
        {
          "internalType": "bytes",
          "name": "mTwo",
          "type": "bytes"
        },
        {
          "internalType": "bytes32",
          "name": "mThree",
          "type": "bytes32"
        },
        {
          "internalType": "bytes32",
          "name": "mFour",
          "type": "bytes32"
        },
        {
          "internalType": "bytes",
          "name": "mFive",
          "type": "bytes"
        },
        {
          "internalType": "uint256",
          "name": "a",
          "type": "uint256"
        }
      ],
      "name": "publicMissingToothMint",
      "outputs": [],
      "stateMutability": "payable",
      "type": "function"
    },
    {
      "inputs": [],
      "name": "renounceOwnership",
      "outputs": [],
      "stateMutability": "nonpayable",
      "type": "function"
    },
    {
      "inputs": [],
      "name": "revealed",
      "outputs": [
        {
          "internalType": "bool",
          "name": "",
          "type": "bool"
        }
      ],
      "stateMutability": "view",
      "type": "function"
    },
    {
      "inputs": [
        {
          "internalType": "address",
          "name": "from",
          "type": "address"
        },
        {
          "internalType": "address",
          "name": "to",
          "type": "address"
        },
        {
          "internalType": "uint256",
          "name": "tokenId",
          "type": "uint256"
        }
      ],
      "name": "safeTransferFrom",
      "outputs": [],
      "stateMutability": "nonpayable",
      "type": "function"
    },
    {
      "inputs": [
        {
          "internalType": "address",
          "name": "from",
          "type": "address"
        },
        {
          "internalType": "address",
          "name": "to",
          "type": "address"
        },
        {
          "internalType": "uint256",
          "name": "tokenId",
          "type": "uint256"
        },
        {
          "internalType": "bytes",
          "name": "_data",
          "type": "bytes"
        }
      ],
      "name": "safeTransferFrom",
      "outputs": [],
      "stateMutability": "nonpayable",
      "type": "function"
    },
    {
      "inputs": [
        {
          "internalType": "address",
          "name": "operator",
          "type": "address"
        },
        {
          "internalType": "bool",
          "name": "approved",
          "type": "bool"
        }
      ],
      "name": "setApprovalForAll",
      "outputs": [],
      "stateMutability": "nonpayable",
      "type": "function"
    },
    {
      "inputs": [
        {
          "internalType": "string",
          "name": "_baseExtension",
          "type": "string"
        }
      ],
      "name": "setBaseExtension",
      "outputs": [],
      "stateMutability": "nonpayable",
      "type": "function"
    },
    {
      "inputs": [
        {
          "internalType": "string",
          "name": "newBaseURI",
          "type": "string"
        }
      ],
      "name": "setBaseURI",
      "outputs": [],
      "stateMutability": "nonpayable",
      "type": "function"
    },
    {
      "inputs": [
        {
          "internalType": "uint256",
          "name": "amount",
          "type": "uint256"
        }
      ],
      "name": "setFreeMints",
      "outputs": [],
      "stateMutability": "nonpayable",
      "type": "function"
    },
    {
      "inputs": [
        {
          "internalType": "string",
          "name": "_hiddenMetadataUri",
          "type": "string"
        }
      ],
      "name": "setHiddenMetadataUri",
      "outputs": [],
      "stateMutability": "nonpayable",
      "type": "function"
    },
    {
      "inputs": [
        {
          "internalType": "uint256",
          "name": "newPrice",
          "type": "uint256"
        },
        {
          "internalType": "uint256",
          "name": "newWhitelistTokenPrice",
          "type": "uint256"
        },
        {
          "internalType": "uint256",
          "name": "setpublicMissingToothMintLimit",
          "type": "uint256"
        },
        {
          "internalType": "uint256",
          "name": "setwhitelistMissingToothMintLimit",
          "type": "uint256"
        },
        {
          "internalType": "bool",
          "name": "setPublicMintState",
          "type": "bool"
        },
        {
          "internalType": "bool",
          "name": "setWhitelistMintState",
          "type": "bool"
        }
      ],
      "name": "setParams",
      "outputs": [],
      "stateMutability": "nonpayable",
      "type": "function"
    },
    {
      "inputs": [
        {
          "internalType": "bool",
          "name": "_state",
          "type": "bool"
        }
      ],
      "name": "setRevealed",
      "outputs": [],
      "stateMutability": "nonpayable",
      "type": "function"
    },
    {
      "inputs": [
        {
          "internalType": "address",
          "name": "newSigner",
          "type": "address"
        },
        {
          "internalType": "address",
          "name": "newSigner2",
          "type": "address"
        }
      ],
      "name": "setSignerAddress",
      "outputs": [],
      "stateMutability": "nonpayable",
      "type": "function"
    },
    {
      "inputs": [
        {
          "internalType": "uint256",
          "name": "newPrice",
          "type": "uint256"
        }
      ],
      "name": "setTokenPrice",
      "outputs": [],
      "stateMutability": "nonpayable",
      "type": "function"
    },
    {
      "inputs": [
        {
          "internalType": "uint256",
          "name": "newMintLimit",
          "type": "uint256"
        }
      ],
      "name": "setTransactionMintLimit",
      "outputs": [],
      "stateMutability": "nonpayable",
      "type": "function"
    },
    {
      "inputs": [
        {
          "internalType": "address",
          "name": "newVault",
          "type": "address"
        }
      ],
      "name": "setVaultAddress",
      "outputs": [],
      "stateMutability": "nonpayable",
      "type": "function"
    },
    {
      "inputs": [
        {
          "internalType": "uint256",
          "name": "newprivateBanquetLimit",
          "type": "uint256"
        }
      ],
      "name": "setWhitelistTransactionMintLimit",
      "outputs": [],
      "stateMutability": "nonpayable",
      "type": "function"
    },
    {
      "inputs": [
        {
          "internalType": "bytes4",
          "name": "interfaceId",
          "type": "bytes4"
        }
      ],
      "name": "supportsInterface",
      "outputs": [
        {
          "internalType": "bool",
          "name": "",
          "type": "bool"
        }
      ],
      "stateMutability": "view",
      "type": "function"
    },
    {
      "inputs": [],
      "name": "symbol",
      "outputs": [
        {
          "internalType": "string",
          "name": "",
          "type": "string"
        }
      ],
      "stateMutability": "view",
      "type": "function"
    },
    {
      "inputs": [],
      "name": "togglePublicMint",
      "outputs": [],
      "stateMutability": "nonpayable",
      "type": "function"
    },
    {
      "inputs": [],
      "name": "toggleWhitelistMint",
      "outputs": [],
      "stateMutability": "nonpayable",
      "type": "function"
    },
    {
      "inputs": [],
      "name": "tokenPrice",
      "outputs": [
        {
          "internalType": "uint256",
          "name": "",
          "type": "uint256"
        }
      ],
      "stateMutability": "view",
      "type": "function"
    },
    {
      "inputs": [
        {
          "internalType": "uint256",
          "name": "_tokenId",
          "type": "uint256"
        }
      ],
      "name": "tokenURI",
      "outputs": [
        {
          "internalType": "string",
          "name": "",
          "type": "string"
        }
      ],
      "stateMutability": "view",
      "type": "function"
    },
    {
      "inputs": [],
      "name": "totalSupply",
      "outputs": [
        {
          "internalType": "uint256",
          "name": "",
          "type": "uint256"
        }
      ],
      "stateMutability": "view",
      "type": "function"
    },
    {
      "inputs": [
        {
          "internalType": "address",
          "name": "from",
          "type": "address"
        },
        {
          "internalType": "address",
          "name": "to",
          "type": "address"
        },
        {
          "internalType": "uint256",
          "name": "tokenId",
          "type": "uint256"
        }
      ],
      "name": "transferFrom",
      "outputs": [],
      "stateMutability": "nonpayable",
      "type": "function"
    },
    {
      "inputs": [
        {
          "internalType": "address",
          "name": "newOwner",
          "type": "address"
        }
      ],
      "name": "transferOwnership",
      "outputs": [],
      "stateMutability": "nonpayable",
      "type": "function"
    },
    {
      "inputs": [],
      "name": "whitelistMintIsOpen",
      "outputs": [
        {
          "internalType": "bool",
          "name": "",
          "type": "bool"
        }
      ],
      "stateMutability": "view",
      "type": "function"
    },
    {
      "inputs": [
        {
          "internalType": "bool",
          "name": "mH",
          "type": "bool"
        },
        {
          "internalType": "bytes32",
          "name": "mOne",
          "type": "bytes32"
        },
        {
          "internalType": "bytes",
          "name": "mTwo",
          "type": "bytes"
        },
        {
          "internalType": "bytes32",
          "name": "mThree",
          "type": "bytes32"
        },
        {
          "internalType": "bytes32",
          "name": "mFour",
          "type": "bytes32"
        },
        {
          "internalType": "bytes",
          "name": "mFive",
          "type": "bytes"
        },
        {
          "internalType": "uint256",
          "name": "amount",
          "type": "uint256"
        }
      ],
      "name": "whitelistMissingToothMint",
      "outputs": [],
      "stateMutability": "payable",
      "type": "function"
    },
    {
      "inputs": [],
      "name": "whitelistTokenPrice",
      "outputs": [
        {
          "internalType": "uint256",
          "name": "",
          "type": "uint256"
        }
      ],
      "stateMutability": "view",
      "type": "function"
    },
    {
      "inputs": [],
      "name": "whitelistmTL",
      "outputs": [
        {
          "internalType": "uint256",
          "name": "",
          "type": "uint256"
        }
      ],
      "stateMutability": "view",
      "type": "function"
    },
    {
      "inputs": [],
      "name": "withdraw",
      "outputs": [],
      "stateMutability": "nonpayable",
      "type": "function"
    },
    {
      "stateMutability": "payable",
      "type": "receive"
    }
  ],
  "bytecode": "0x60146009819055600a5566f8b0a10e470000600b5566c3663566a58000600c55611770600d55600e805462ffffff191661010017905560c06040526005608081905264173539b7b760d91b60a09081526200005e91601091906200057c565b50601280546001600160a01b031990811690915560138054821690556014805490911690553480156200009057600080fd5b5060405162003fdb38038062003fdb833981016040819052620000b39162000719565b6040518060400160405280600c81526020016b546f6f746879546f6f74687360a01b81525060405180604001604052806003815260200162534f5360e81b8152506200010e62000108620001d660201b60201c565b620001da565b8151620001239060019060208501906200057c565b508051620001399060029060208401906200057c565b5050601480546001600160a01b03199081166001600160a01b038781169190911790925560128054821689841617905560138054909116918716919091179055506200019260086200022a602090811b6200201d17901c565b6200019f33600062000233565b8151620001b490600f9060208501906200057c565b508051620001ca9060119060208401906200057c565b505050505050620008a9565b3390565b600080546001600160a01b038381166001600160a01b0319831681178455604051919092169283917f8be0079c531659141344cd1fd0a4f28419497f9722a3daafe3b4186f6b6457e09190a35050565b80546001019055565b620002558282604051806020016040528060008152506200025960201b60201c565b5050565b620002658383620002d5565b6200027460008484846200041d565b620002d05760405162461bcd60e51b8152602060048201526032602482015260008051602062003fbb83398151915260448201527131b2b4bb32b91034b6b83632b6b2b73a32b960711b60648201526084015b60405180910390fd5b505050565b6001600160a01b0382166200032d5760405162461bcd60e51b815260206004820181905260248201527f4552433732313a206d696e7420746f20746865207a65726f20616464726573736044820152606401620002c7565b6000818152600360205260409020546001600160a01b031615620003945760405162461bcd60e51b815260206004820152601c60248201527f4552433732313a20746f6b656e20616c7265616479206d696e746564000000006044820152606401620002c7565b6001600160a01b0382166000908152600460205260408120805460019290620003bf908490620007bc565b909155505060008181526003602052604080822080546001600160a01b0319166001600160a01b03861690811790915590518392907fddf252ad1be2c89b69c2b068fc378daa952ba7f163c4a11628f55a4df523b3ef908290a45050565b60006200043e846001600160a01b03166200057660201b620020261760201c565b156200056a57604051630a85bd0160e11b81526001600160a01b0385169063150b7a029062000478903390899088908890600401620007e3565b6020604051808303816000875af1925050508015620004b6575060408051601f3d908101601f19168201909252620004b39181019062000839565b60015b6200054f573d808015620004e7576040519150601f19603f3d011682016040523d82523d6000602084013e620004ec565b606091505b508051620005475760405162461bcd60e51b8152602060048201526032602482015260008051602062003fbb83398151915260448201527131b2b4bb32b91034b6b83632b6b2b73a32b960711b6064820152608401620002c7565b805181602001fd5b6001600160e01b031916630a85bd0160e11b1490506200056e565b5060015b949350505050565b3b151590565b8280546200058a906200086c565b90600052602060002090601f016020900481019282620005ae5760008555620005f9565b82601f10620005c957805160ff1916838001178555620005f9565b82800160010185558215620005f9579182015b82811115620005f9578251825591602001919060010190620005dc565b50620006079291506200060b565b5090565b5b808211156200060757600081556001016200060c565b80516001600160a01b03811681146200063a57600080fd5b919050565b634e487b7160e01b600052604160045260246000fd5b60005b838110156200067257818101518382015260200162000658565b8381111562000682576000848401525b50505050565b600082601f8301126200069a57600080fd5b81516001600160401b0380821115620006b757620006b76200063f565b604051601f8301601f19908116603f01168101908282118183101715620006e257620006e26200063f565b81604052838152866020858801011115620006fc57600080fd5b6200070f84602083016020890162000655565b9695505050505050565b600080600080600060a086880312156200073257600080fd5b6200073d8662000622565b94506200074d6020870162000622565b93506200075d6040870162000622565b60608701519093506001600160401b03808211156200077b57600080fd5b6200078989838a0162000688565b93506080880151915080821115620007a057600080fd5b50620007af8882890162000688565b9150509295509295909350565b60008219821115620007de57634e487b7160e01b600052601160045260246000fd5b500190565b600060018060a01b038087168352808616602084015250836040830152608060608301528251806080840152620008228160a085016020870162000655565b601f01601f19169190910160a00195945050505050565b6000602082840312156200084c57600080fd5b81516001600160e01b0319811681146200086557600080fd5b9392505050565b600181811c908216806200088157607f821691505b60208210811415620008a357634e487b7160e01b600052602260045260246000fd5b50919050565b61370280620008b96000396000f3fe6080604052600436106103015760003560e01c806385535cc51161018f578063d6966cd8116100e1578063f085d8d71161008a578063fa468ead11610064578063fa468ead14610829578063fe471ed51461083f578063ffc81d991461085f57600080fd5b8063f085d8d7146107e0578063f2fde38b146107f3578063f47c84c51461081357600080fd5b8063e58306f9116100bb578063e58306f914610757578063e7db8fb014610777578063e985e9c51461079757600080fd5b8063d6966cd814610701578063da3ef23f14610717578063e0a808531461073757600080fd5b8063a22cb46511610143578063c66828621161011d578063c6682862146106b6578063c87b56dd146106cb578063cf02027e146106eb57600080fd5b8063a22cb46514610661578063a45ba8e714610681578063b88d4fde1461069657600080fd5b80638da5cb5b116101745780638da5cb5b1461061457806395d89b4114610632578063a15d60c51461064757600080fd5b806385535cc5146105de57806389d0997c146105fe57600080fd5b806342966c68116102535780636a61e5fc116101fc578063715018a6116101d6578063715018a6146105935780637ff9b596146105a85780638175e89c146105be57600080fd5b80636a61e5fc1461053e5780636f63b60a1461055e57806370a082311461057357600080fd5b806355f804b31161022d57806355f804b3146104eb5780636352211e1461050b57806363784adb1461052b57600080fd5b806342966c681461048b5780634fdd43cb146104ab57806351830227146104cb57600080fd5b80630f1e6828116102b55780633ccfd60b1161028f5780633ccfd60b146104415780634047638d1461045657806342842e0e1461046b57600080fd5b80630f1e6828146103de57806318160ddd146103fe57806323b872dd1461042157600080fd5b8063081812fc116102e6578063081812fc14610364578063095ea7b31461039c5780630d738aeb146103be57600080fd5b806301ffc9a71461030d57806306fdde031461034257600080fd5b3661030857005b600080fd5b34801561031957600080fd5b5061032d610328366004613075565b61087e565b60405190151581526020015b60405180910390f35b34801561034e57600080fd5b50610357610963565b60405161033991906130ea565b34801561037057600080fd5b5061038461037f3660046130fd565b6109f5565b6040516001600160a01b039091168152602001610339565b3480156103a857600080fd5b506103bc6103b7366004613132565b610aa0565b005b3480156103ca57600080fd5b506103bc6103d93660046130fd565b610bd2565b3480156103ea57600080fd5b506103bc6103f93660046130fd565b610c31565b34801561040a57600080fd5b50610413610c90565b604051908152602001610339565b34801561042d57600080fd5b506103bc61043c36600461315c565b610ca0565b34801561044d57600080fd5b506103bc610d27565b34801561046257600080fd5b506103bc610dbd565b34801561047757600080fd5b506103bc61048636600461315c565b610e2b565b34801561049757600080fd5b506103bc6104a63660046130fd565b610e46565b3480156104b757600080fd5b506103bc6104c6366004613224565b610ea9565b3480156104d757600080fd5b50600e5461032d9062010000900460ff1681565b3480156104f757600080fd5b506103bc610506366004613224565b610f1a565b34801561051757600080fd5b506103846105263660046130fd565b610f87565b6103bc61053936600461329d565b611012565b34801561054a57600080fd5b506103bc6105593660046130fd565b611331565b34801561056a57600080fd5b506103bc611390565b34801561057f57600080fd5b5061041361058e366004613338565b611407565b34801561059f57600080fd5b506103bc6114a1565b3480156105b457600080fd5b50610413600b5481565b3480156105ca57600080fd5b506103bc6105d9366004613353565b611507565b3480156105ea57600080fd5b506103bc6105f9366004613338565b61159c565b34801561060a57600080fd5b5061041360095481565b34801561062057600080fd5b506000546001600160a01b0316610384565b34801561063e57600080fd5b50610357611625565b34801561065357600080fd5b50600e5461032d9060ff1681565b34801561066d57600080fd5b506103bc61067c366004613386565b611634565b34801561068d57600080fd5b5061035761163f565b3480156106a257600080fd5b506103bc6106b13660046133b0565b6116cd565b3480156106c257600080fd5b5061035761175b565b3480156106d757600080fd5b506103576106e63660046130fd565b611768565b3480156106f757600080fd5b50610413600a5481565b34801561070d57600080fd5b50610413600d5481565b34801561072357600080fd5b506103bc610732366004613224565b6118f6565b34801561074357600080fd5b506103bc610752366004613418565b611963565b34801561076357600080fd5b506103bc610772366004613132565b6119f5565b34801561078357600080fd5b506103bc6107923660046130fd565b611aef565b3480156107a357600080fd5b5061032d6107b2366004613353565b6001600160a01b03918216600090815260066020908152604080832093909416825291909152205460ff1690565b6103bc6107ee36600461329d565b611ba0565b3480156107ff57600080fd5b506103bc61080e366004613338565b611e8e565b34801561081f57600080fd5b506104136122b881565b34801561083557600080fd5b50610413600c5481565b34801561084b57600080fd5b506103bc61085a366004613433565b611f6d565b34801561086b57600080fd5b50600e5461032d90610100900460ff1681565b60007fffffffff0000000000000000000000000000000000000000000000000000000082167f80ac58cd00000000000000000000000000000000000000000000000000000000148061091157507fffffffff0000000000000000000000000000000000000000000000000000000082167f5b5e139f00000000000000000000000000000000000000000000000000000000145b8061095d57507f01ffc9a7000000000000000000000000000000000000000000000000000000007fffffffff000000000000000000000000000000000000000000000000000000008316145b92915050565b6060600180546109729061348b565b80601f016020809104026020016040519081016040528092919081815260200182805461099e9061348b565b80156109eb5780601f106109c0576101008083540402835291602001916109eb565b820191906000526020600020905b8154815290600101906020018083116109ce57829003601f168201915b5050505050905090565b6000818152600360205260408120546001600160a01b0316610a845760405162461bcd60e51b815260206004820152602c60248201527f4552433732313a20617070726f76656420717565727920666f72206e6f6e657860448201527f697374656e7420746f6b656e000000000000000000000000000000000000000060648201526084015b60405180910390fd5b506000908152600560205260409020546001600160a01b031690565b6000610aab82610f87565b9050806001600160a01b0316836001600160a01b03161415610b355760405162461bcd60e51b815260206004820152602160248201527f4552433732313a20617070726f76616c20746f2063757272656e74206f776e6560448201527f72000000000000000000000000000000000000000000000000000000000000006064820152608401610a7b565b336001600160a01b0382161480610b515750610b5181336107b2565b610bc35760405162461bcd60e51b815260206004820152603860248201527f4552433732313a20617070726f76652063616c6c6572206973206e6f74206f7760448201527f6e6572206e6f7220617070726f76656420666f7220616c6c00000000000000006064820152608401610a7b565b610bcd838361202c565b505050565b6000546001600160a01b03163314610c2c5760405162461bcd60e51b815260206004820181905260248201527f4f776e61626c653a2063616c6c6572206973206e6f7420746865206f776e65726044820152606401610a7b565b600a55565b6000546001600160a01b03163314610c8b5760405162461bcd60e51b815260206004820181905260248201527f4f776e61626c653a2063616c6c6572206973206e6f7420746865206f776e65726044820152606401610a7b565b600955565b6000610c9b60085490565b905090565b610caa33826120a7565b610d1c5760405162461bcd60e51b815260206004820152603160248201527f4552433732313a207472616e736665722063616c6c6572206973206e6f74206f60448201527f776e6572206e6f7220617070726f7665640000000000000000000000000000006064820152608401610a7b565b610bcd8383836121af565b6000546001600160a01b03163314610d815760405162461bcd60e51b815260206004820181905260248201527f4f776e61626c653a2063616c6c6572206973206e6f7420746865206f776e65726044820152606401610a7b565b6014546040516001600160a01b03909116904780156108fc02916000818181858888f19350505050158015610dba573d6000803e3d6000fd5b50565b6000546001600160a01b03163314610e175760405162461bcd60e51b815260206004820181905260248201527f4f776e61626c653a2063616c6c6572206973206e6f7420746865206f776e65726044820152606401610a7b565b600e805460ff19811660ff90911615179055565b610bcd838383604051806020016040528060008152506116cd565b6000546001600160a01b03163314610ea05760405162461bcd60e51b815260206004820181905260248201527f4f776e61626c653a2063616c6c6572206973206e6f7420746865206f776e65726044820152606401610a7b565b610dba81612389565b6000546001600160a01b03163314610f035760405162461bcd60e51b815260206004820181905260248201527f4f776e61626c653a2063616c6c6572206973206e6f7420746865206f776e65726044820152606401610a7b565b8051610f16906011906020840190612f78565b5050565b6000546001600160a01b03163314610f745760405162461bcd60e51b815260206004820181905260248201527f4f776e61626c653a2063616c6c6572206973206e6f7420746865206f776e65726044820152606401610a7b565b8051610f1690600f906020840190612f78565b6000818152600360205260408120546001600160a01b03168061095d5760405162461bcd60e51b815260206004820152602960248201527f4552433732313a206f776e657220717565727920666f72206e6f6e657869737460448201527f656e7420746f6b656e00000000000000000000000000000000000000000000006064820152608401610a7b565b8686868585600e60019054906101000a900460ff166110735760405162461bcd60e51b815260206004820152601c60248201527f5754466f726b73205072652d53616c65206973206e6f74204f70656e000000006044820152606401610a7b565b61109585866110825783611084565b855b8761108f5783612392565b85612392565b6110e15760405162461bcd60e51b815260206004820152601760248201527f446972656374206d696e74206e6f7720616c6c6f7765640000000000000000006044820152606401610a7b565b33896000604051602001611164907f496620796f752077616e7420746f2068656c702066656564207468652068756e81527f67727920616e6420796f752063616e206765742061726f756e6420746865206760208201527f61746520676f20666f722069742e207e546563686f7368690000000000000000604082015260580190565b604051602081830303815290604052805190602001206040516020016111ad907f3c285e5f5e293e00000000000000000000000000000000000000000000000000815260070190565b60408051601f1981840301815291905280516020909101201415905060006111d460085490565b600d549091506111e48b836134dc565b106112315760405162461bcd60e51b815260206004820152601f60248201527f4e6f7420656e6f7567682066726565206d696e74732072656d61696e696e67006044820152606401610a7b565b348a600c5461124091906134f4565b111561128e5760405162461bcd60e51b815260206004820152601560248201527f4e6f7420656e6f7567682065746865722073656e7400000000000000000000006044820152606401610a7b565b600a548a11156112e05760405162461bcd60e51b815260206004820152601560248201527f4d696e7420616d6f756e7420746f6f206c6172676500000000000000000000006044820152606401610a7b565b60005b8a81101561131e576112f9600880546001019055565b61130c3361130783856134dc565b612450565b8061131681613513565b9150506112e3565b5050505050505050505050505050505050565b6000546001600160a01b0316331461138b5760405162461bcd60e51b815260206004820181905260248201527f4f776e61626c653a2063616c6c6572206973206e6f7420746865206f776e65726044820152606401610a7b565b600b55565b6000546001600160a01b031633146113ea5760405162461bcd60e51b815260206004820181905260248201527f4f776e61626c653a2063616c6c6572206973206e6f7420746865206f776e65726044820152606401610a7b565b600e805461ff001981166101009182900460ff1615909102179055565b60006001600160a01b0382166114855760405162461bcd60e51b815260206004820152602a60248201527f4552433732313a2062616c616e636520717565727920666f7220746865207a6560448201527f726f2061646472657373000000000000000000000000000000000000000000006064820152608401610a7b565b506001600160a01b031660009081526004602052604090205490565b6000546001600160a01b031633146114fb5760405162461bcd60e51b815260206004820181905260248201527f4f776e61626c653a2063616c6c6572206973206e6f7420746865206f776e65726044820152606401610a7b565b611505600061246a565b565b6000546001600160a01b031633146115615760405162461bcd60e51b815260206004820181905260248201527f4f776e61626c653a2063616c6c6572206973206e6f7420746865206f776e65726044820152606401610a7b565b601280546001600160a01b0393841673ffffffffffffffffffffffffffffffffffffffff199182161790915560138054929093169116179055565b6000546001600160a01b031633146115f65760405162461bcd60e51b815260206004820181905260248201527f4f776e61626c653a2063616c6c6572206973206e6f7420746865206f776e65726044820152606401610a7b565b6014805473ffffffffffffffffffffffffffffffffffffffff19166001600160a01b0392909216919091179055565b6060600280546109729061348b565b610f163383836124c7565b6011805461164c9061348b565b80601f01602080910402602001604051908101604052809291908181526020018280546116789061348b565b80156116c55780601f1061169a576101008083540402835291602001916116c5565b820191906000526020600020905b8154815290600101906020018083116116a857829003601f168201915b505050505081565b6116d733836120a7565b6117495760405162461bcd60e51b815260206004820152603160248201527f4552433732313a207472616e736665722063616c6c6572206973206e6f74206f60448201527f776e6572206e6f7220617070726f7665640000000000000000000000000000006064820152608401610a7b565b61175584848484612596565b50505050565b6010805461164c9061348b565b6000818152600360205260409020546060906001600160a01b03166117f55760405162461bcd60e51b815260206004820152602f60248201527f4552433732314d657461646174613a2055524920717565727920666f72206e6f60448201527f6e6578697374656e7420746f6b656e00000000000000000000000000000000006064820152608401610a7b565b600e5462010000900460ff1661189757601180546118129061348b565b80601f016020809104026020016040519081016040528092919081815260200182805461183e9061348b565b801561188b5780601f106118605761010080835404028352916020019161188b565b820191906000526020600020905b81548152906001019060200180831161186e57829003601f168201915b50505050509050919050565b60006118a161261f565b905060008151116118c157604051806020016040528060008152506118ef565b806118cb8461262e565b60106040516020016118df9392919061352e565b6040516020818303038152906040525b9392505050565b6000546001600160a01b031633146119505760405162461bcd60e51b815260206004820181905260248201527f4f776e61626c653a2063616c6c6572206973206e6f7420746865206f776e65726044820152606401610a7b565b8051610f16906010906020840190612f78565b6000546001600160a01b031633146119bd5760405162461bcd60e51b815260206004820181905260248201527f4f776e61626c653a2063616c6c6572206973206e6f7420746865206f776e65726044820152606401610a7b565b600e805491151562010000027fffffffffffffffffffffffffffffffffffffffffffffffffffffffffff00ffff909216919091179055565b6000546001600160a01b03163314611a4f5760405162461bcd60e51b815260206004820181905260248201527f4f776e61626c653a2063616c6c6572206973206e6f7420746865206f776e65726044820152606401610a7b565b6000611a5a60085490565b90506122b8611a6983836134dc565b10611ab65760405162461bcd60e51b815260206004820152601b60248201527f4e6f7420656e6f75676820746f6b656e732072656d61696e696e6700000000006044820152606401610a7b565b60005b8281101561175557611acf600880546001019055565b611add8461130783856134dc565b80611ae781613513565b915050611ab9565b6000546001600160a01b03163314611b495760405162461bcd60e51b815260206004820181905260248201527f4f776e61626c653a2063616c6c6572206973206e6f7420746865206f776e65726044820152606401610a7b565b6122b8811115611b9b5760405162461bcd60e51b815260206004820152601a60248201527f46726565206d696e7420616d6f756e7420746f6f206c617267650000000000006044820152606401610a7b565b600d55565b600e548790879087908690869060ff16611bfc5760405162461bcd60e51b815260206004820152601360248201527f4b69746368656e206973206e6f74206f70656e000000000000000000000000006044820152606401610a7b565b611c0b85866110825783611084565b611c575760405162461bcd60e51b815260206004820152601760248201527f446972656374206d696e74206e6f7720616c6c6f7765640000000000000000006044820152606401610a7b565b33896000604051602001611cda907f496620796f752077616e7420746f2068656c702066656564207468652068756e81527f67727920616e6420796f752063616e206765742061726f756e6420746865206760208201527f61746520676f20666f722069742e207e546563686f7368690000000000000000604082015260580190565b60405160208183030381529060405280519060200120604051602001611d23907f3c285e5f5e293e00000000000000000000000000000000000000000000000000815260070190565b60408051601f198184030181529190528051602090910120141590506000611d4a60085490565b90506009548a1115611d9e5760405162461bcd60e51b815260206004820152601560248201527f4d696e7420616d6f756e7420746f6f206c6172676500000000000000000000006044820152606401610a7b565b6122b8611dab8b836134dc565b10611df85760405162461bcd60e51b815260206004820152601b60248201527f4e6f7420656e6f75676820746f6b656e732072656d61696e696e6700000000006044820152606401610a7b565b348a600b54611e0791906134f4565b1115611e555760405162461bcd60e51b815260206004820152601560248201527f4e6f7420656e6f7567682065746865722073656e7400000000000000000000006044820152606401610a7b565b60005b8a81101561131e57611e6e600880546001019055565b611e7c3361130783856134dc565b80611e8681613513565b915050611e58565b6000546001600160a01b03163314611ee85760405162461bcd60e51b815260206004820181905260248201527f4f776e61626c653a2063616c6c6572206973206e6f7420746865206f776e65726044820152606401610a7b565b6001600160a01b038116611f645760405162461bcd60e51b815260206004820152602660248201527f4f776e61626c653a206e6577206f776e657220697320746865207a65726f206160448201527f64647265737300000000000000000000000000000000000000000000000000006064820152608401610a7b565b610dba8161246a565b6000546001600160a01b03163314611fc75760405162461bcd60e51b815260206004820181905260248201527f4f776e61626c653a2063616c6c6572206973206e6f7420746865206f776e65726044820152606401610a7b565b600c94909455600b94909455600991909155600a55600e80547fffffffffffffffffffffffffffffffffffffffffffffffffffffffffffff00001692151561ff0019169290921761010091151591909102179055565b80546001019055565b3b151590565b6000818152600560205260409020805473ffffffffffffffffffffffffffffffffffffffff19166001600160a01b038416908117909155819061206e82610f87565b6001600160a01b03167f8c5be1e5ebec7d5bd14f71427d1e84f3dd0314c0f7b2291e5b200ac8c7c3b92560405160405180910390a45050565b6000818152600360205260408120546001600160a01b03166121315760405162461bcd60e51b815260206004820152602c60248201527f4552433732313a206f70657261746f7220717565727920666f72206e6f6e657860448201527f697374656e7420746f6b656e00000000000000000000000000000000000000006064820152608401610a7b565b600061213c83610f87565b9050806001600160a01b0316846001600160a01b031614806121775750836001600160a01b031661216c846109f5565b6001600160a01b0316145b806121a757506001600160a01b0380821660009081526006602090815260408083209388168352929052205460ff165b949350505050565b826001600160a01b03166121c282610f87565b6001600160a01b03161461223e5760405162461bcd60e51b815260206004820152602960248201527f4552433732313a207472616e73666572206f6620746f6b656e2074686174206960448201527f73206e6f74206f776e00000000000000000000000000000000000000000000006064820152608401610a7b565b6001600160a01b0382166122b95760405162461bcd60e51b8152602060048201526024808201527f4552433732313a207472616e7366657220746f20746865207a65726f2061646460448201527f72657373000000000000000000000000000000000000000000000000000000006064820152608401610a7b565b6122c460008261202c565b6001600160a01b03831660009081526004602052604081208054600192906122ed9084906135f2565b90915550506001600160a01b038216600090815260046020526040812080546001929061231b9084906134dc565b9091555050600081815260036020526040808220805473ffffffffffffffffffffffffffffffffffffffff19166001600160a01b0386811691821790925591518493918716917fddf252ad1be2c89b69c2b068fc378daa952ba7f163c4a11628f55a4df523b3ef91a4505050565b610dba81612760565b6000806123f6836123f0866040517f19457468657265756d205369676e6564204d6573736167653a0a3332000000006020820152603c8101829052600090605c01604051602081830303815290604052805190602001209050919050565b906127a0565b9050600085801561241457506012546001600160a01b038381169116145b905060008615801561243357506013546001600160a01b038481169116145b90506000876124425781612444565b825b98975050505050505050565b610f168282604051806020016040528060008152506127c4565b600080546001600160a01b0383811673ffffffffffffffffffffffffffffffffffffffff19831681178455604051919092169283917f8be0079c531659141344cd1fd0a4f28419497f9722a3daafe3b4186f6b6457e09190a35050565b816001600160a01b0316836001600160a01b031614156125295760405162461bcd60e51b815260206004820152601960248201527f4552433732313a20617070726f766520746f2063616c6c6572000000000000006044820152606401610a7b565b6001600160a01b03838116600081815260066020908152604080832094871680845294825291829020805460ff191686151590811790915591519182527f17307eab39ab6107e8899845ad3d59bd9653f200f220920489ca2b5937696c31910160405180910390a3505050565b6125a18484846121af565b6125ad8484848461284d565b6117555760405162461bcd60e51b815260206004820152603260248201527f4552433732313a207472616e7366657220746f206e6f6e20455243373231526560448201527f63656976657220696d706c656d656e74657200000000000000000000000000006064820152608401610a7b565b6060600f80546109729061348b565b60608161266e57505060408051808201909152600181527f3000000000000000000000000000000000000000000000000000000000000000602082015290565b8160005b8115612698578061268281613513565b91506126919050600a8361361f565b9150612672565b60008167ffffffffffffffff8111156126b3576126b3613198565b6040519080825280601f01601f1916602001820160405280156126dd576020820181803683370190505b5090505b84156121a7576126f26001836135f2565b91506126ff600a86613633565b61270a9060306134dc565b60f81b81838151811061271f5761271f613647565b60200101907effffffffffffffffffffffffffffffffffffffffffffffffffffffffffffff1916908160001a905350612759600a8661361f565b94506126e1565b612769816129eb565b600081815260076020526040902080546127829061348b565b159050610dba576000818152600760205260408120610dba91612ffc565b60008060006127af8585612a93565b915091506127bc81612b03565b509392505050565b6127ce8383612cf4565b6127db600084848461284d565b610bcd5760405162461bcd60e51b815260206004820152603260248201527f4552433732313a207472616e7366657220746f206e6f6e20455243373231526560448201527f63656976657220696d706c656d656e74657200000000000000000000000000006064820152608401610a7b565b60006001600160a01b0384163b156129e0576040517f150b7a020000000000000000000000000000000000000000000000000000000081526001600160a01b0385169063150b7a02906128aa90339089908890889060040161365d565b6020604051808303816000875af19250505080156128e5575060408051601f3d908101601f191682019092526128e291810190613699565b60015b612995573d808015612913576040519150601f19603f3d011682016040523d82523d6000602084013e612918565b606091505b50805161298d5760405162461bcd60e51b815260206004820152603260248201527f4552433732313a207472616e7366657220746f206e6f6e20455243373231526560448201527f63656976657220696d706c656d656e74657200000000000000000000000000006064820152608401610a7b565b805181602001fd5b7fffffffff00000000000000000000000000000000000000000000000000000000167f150b7a02000000000000000000000000000000000000000000000000000000001490506121a7565b506001949350505050565b60006129f682610f87565b9050612a0360008361202c565b6001600160a01b0381166000908152600460205260408120805460019290612a2c9084906135f2565b9091555050600082815260036020526040808220805473ffffffffffffffffffffffffffffffffffffffff19169055518391906001600160a01b038416907fddf252ad1be2c89b69c2b068fc378daa952ba7f163c4a11628f55a4df523b3ef908390a45050565b600080825160411415612aca5760208301516040840151606085015160001a612abe87828585612e43565b94509450505050612afc565b825160401415612af45760208301516040840151612ae9868383612f30565b935093505050612afc565b506000905060025b9250929050565b6000816004811115612b1757612b176136b6565b1415612b205750565b6001816004811115612b3457612b346136b6565b1415612b825760405162461bcd60e51b815260206004820152601860248201527f45434453413a20696e76616c6964207369676e617475726500000000000000006044820152606401610a7b565b6002816004811115612b9657612b966136b6565b1415612be45760405162461bcd60e51b815260206004820152601f60248201527f45434453413a20696e76616c6964207369676e6174757265206c656e677468006044820152606401610a7b565b6003816004811115612bf857612bf86136b6565b1415612c6c5760405162461bcd60e51b815260206004820152602260248201527f45434453413a20696e76616c6964207369676e6174757265202773272076616c60448201527f75650000000000000000000000000000000000000000000000000000000000006064820152608401610a7b565b6004816004811115612c8057612c806136b6565b1415610dba5760405162461bcd60e51b815260206004820152602260248201527f45434453413a20696e76616c6964207369676e6174757265202776272076616c60448201527f75650000000000000000000000000000000000000000000000000000000000006064820152608401610a7b565b6001600160a01b038216612d4a5760405162461bcd60e51b815260206004820181905260248201527f4552433732313a206d696e7420746f20746865207a65726f20616464726573736044820152606401610a7b565b6000818152600360205260409020546001600160a01b031615612daf5760405162461bcd60e51b815260206004820152601c60248201527f4552433732313a20746f6b656e20616c7265616479206d696e746564000000006044820152606401610a7b565b6001600160a01b0382166000908152600460205260408120805460019290612dd89084906134dc565b9091555050600081815260036020526040808220805473ffffffffffffffffffffffffffffffffffffffff19166001600160a01b03861690811790915590518392907fddf252ad1be2c89b69c2b068fc378daa952ba7f163c4a11628f55a4df523b3ef908290a45050565b6000807f7fffffffffffffffffffffffffffffff5d576e7357a4501ddfe92f46681b20a0831115612e7a5750600090506003612f27565b8460ff16601b14158015612e9257508460ff16601c14155b15612ea35750600090506004612f27565b6040805160008082526020820180845289905260ff881692820192909252606081018690526080810185905260019060a0016020604051602081039080840390855afa158015612ef7573d6000803e3d6000fd5b5050604051601f1901519150506001600160a01b038116612f2057600060019250925050612f27565b9150600090505b94509492505050565b6000807f7fffffffffffffffffffffffffffffffffffffffffffffffffffffffffffffff831660ff84901c601b01612f6a87828885612e43565b935093505050935093915050565b828054612f849061348b565b90600052602060002090601f016020900481019282612fa65760008555612fec565b82601f10612fbf57805160ff1916838001178555612fec565b82800160010185558215612fec579182015b82811115612fec578251825591602001919060010190612fd1565b50612ff8929150613032565b5090565b5080546130089061348b565b6000825580601f10613018575050565b601f016020900490600052602060002090810190610dba91905b5b80821115612ff85760008155600101613033565b7fffffffff0000000000000000000000000000000000000000000000000000000081168114610dba57600080fd5b60006020828403121561308757600080fd5b81356118ef81613047565b60005b838110156130ad578181015183820152602001613095565b838111156117555750506000910152565b600081518084526130d6816020860160208601613092565b601f01601f19169290920160200192915050565b6020815260006118ef60208301846130be565b60006020828403121561310f57600080fd5b5035919050565b80356001600160a01b038116811461312d57600080fd5b919050565b6000806040838503121561314557600080fd5b61314e83613116565b946020939093013593505050565b60008060006060848603121561317157600080fd5b61317a84613116565b925061318860208501613116565b9150604084013590509250925092565b634e487b7160e01b600052604160045260246000fd5b600067ffffffffffffffff808411156131c9576131c9613198565b604051601f8501601f19908116603f011681019082821181831017156131f1576131f1613198565b8160405280935085815286868601111561320a57600080fd5b858560208301376000602087830101525050509392505050565b60006020828403121561323657600080fd5b813567ffffffffffffffff81111561324d57600080fd5b8201601f8101841361325e57600080fd5b6121a7848235602084016131ae565b8035801515811461312d57600080fd5b600082601f83011261328e57600080fd5b6118ef838335602085016131ae565b600080600080600080600060e0888a0312156132b857600080fd5b6132c18861326d565b965060208801359550604088013567ffffffffffffffff808211156132e557600080fd5b6132f18b838c0161327d565b965060608a0135955060808a0135945060a08a013591508082111561331557600080fd5b506133228a828b0161327d565b92505060c0880135905092959891949750929550565b60006020828403121561334a57600080fd5b6118ef82613116565b6000806040838503121561336657600080fd5b61336f83613116565b915061337d60208401613116565b90509250929050565b6000806040838503121561339957600080fd5b6133a283613116565b915061337d6020840161326d565b600080600080608085870312156133c657600080fd5b6133cf85613116565b93506133dd60208601613116565b925060408501359150606085013567ffffffffffffffff81111561340057600080fd5b61340c8782880161327d565b91505092959194509250565b60006020828403121561342a57600080fd5b6118ef8261326d565b60008060008060008060c0878903121561344c57600080fd5b863595506020870135945060408701359350606087013592506134716080880161326d565b915061347f60a0880161326d565b90509295509295509295565b600181811c9082168061349f57607f821691505b602082108114156134c057634e487b7160e01b600052602260045260246000fd5b50919050565b634e487b7160e01b600052601160045260246000fd5b600082198211156134ef576134ef6134c6565b500190565b600081600019048311821515161561350e5761350e6134c6565b500290565b6000600019821415613527576135276134c6565b5060010190565b6000845160206135418285838a01613092565b8551918401916135548184848a01613092565b8554920191600090600181811c908083168061357157607f831692505b85831081141561358f57634e487b7160e01b85526022600452602485fd5b8080156135a357600181146135b4576135e1565b60ff198516885283880195506135e1565b60008b81526020902060005b858110156135d95781548a8201529084019088016135c0565b505083880195505b50939b9a5050505050505050505050565b600082821015613604576136046134c6565b500390565b634e487b7160e01b600052601260045260246000fd5b60008261362e5761362e613609565b500490565b60008261364257613642613609565b500690565b634e487b7160e01b600052603260045260246000fd5b60006001600160a01b0380871683528086166020840152508360408301526080606083015261368f60808301846130be565b9695505050505050565b6000602082840312156136ab57600080fd5b81516118ef81613047565b634e487b7160e01b600052602160045260246000fdfea26469706673582212205ac77800cdb50edf3a665230ff76bca4f7e1f62ff4cdd23226199ec751d3f6ab64736f6c634300080b00334552433732313a207472616e7366657220746f206e6f6e204552433732315265",
  "linkReferences": {},
  "deployedLinkReferences": {}
}